:1000000012C01FC01EC01DC01CC01BC01AC08EC0A5
:1000100018C017C016C015C014C013C012C011C03C
:1000200010C00FC00EC011241FBECFEDCDBF20E009
:10003000A0E6B0E001C01D92A237B207E1F73DD0C3
:1000400021C1DECF1F93CF93DF93CDB7DD27C35000
:10005000CDBF80EC89831A821B8263E0CE010196BA
:10006000B9D084E18A831AEA1B8363E0CE0101964A
:10007000B1D085E18A831B8363E0CE010196AAD0CB
:1000800086E18A831B8363E0CE010196A3D087E1DA
:100090008A831B8363E0CE0101969CD0CD5FCDBFE8
:1000A000DF91CF911F91089512B819B882E08BB9F2
:1000B00088E98AB986E083B90895CF93DF93CDB7F5
:1000C000DD27C350CDBFF0DF55D0789480EC898315
:1000D000B9DF81E690E021E730E0FC014FEF41938A
:1000E000E217F307E1F7E12CF12C882E992E6894A2
:1000F000AA24A1F8C12CD12CA5DF082D192DBA2CCA
:10010000BA82F80181918F018B8363E0CE01019661
:1001100061D0B394F2E1BF12F3CF8FEFE81AF80A7F
:10012000E4E6EE16F10440F37601E6CF1F920F925B
:100130000FB60F9211248F939F93EF93FF939CB16F
:100140009F3F19F4109260000CC0809160008031D4
:1001500041F0E82FF0E0EF59FF4F90838F5F8093DD
:100160006000FF91EF919F918F910F900FBE0F90C4
:100170001F901895C59AC79ABF9ABD9A8FEF8FB9ED
:100180008AE28DB980EF8EB908958EB98BE297E03F
:100190009A95F1F78DB9B79BFECF93E09A95F1F759
:1001A00000008DB9769BF3CF87E08A95F1F78FB188
:1001B0009FEF9FB9BD9A0895C598C79AB79BFECF88
:1001C00083E08A95F1F70000C59A87E08A95F1F7F8
:1001D00081E008950F931F93CF93DF93162F21E0B3
:1001E00020937100FC01208120FD04C021E02260E9
:1001F00020937100C79AC79BFECFF3E0FA95F1F701
:100200000000C59823E02A95F1F70000C798C59A29
:10021000EC010FEF809171008370F1F0C798888135
:100220008FB980EFB2DFBD988EEFAFDF80FF0EC0D9
:100230008091710080FF05C086E08093710080E0AE
:100240001CC085E08093710080E017C08091710030
:100250008E7F809371000BC0BD9880EF96DF8883FE
:10026000113011F40FB901C01FB88EEF8EDF11509D
:1002700021961111CFCFA0DF81E0DF91CF911F91A7
:080280000F910895F894FFCFDF
:00000001FF
