S0170000424C55422055534220746F205457492E73726563C7
S113000012C01FC01EC01DC01CC01BC01AC076C0B9
S113001018C017C016C015C014C013C012C011C038
S113002010C00FC00EC011241FBECFEDCDBF20E005
S1130030A0E6B0E001C01D92A438B207E1F73ED0BB
S113004009C1DECF1F93CF93DF93CDB7DD27C35014
S1130050CDBF80EC89831A821B8263E0CE010196B6
S1130060A1D084E18A831AEA1B8363E0CE0101965E
S113007099D085E18A831B8363E0CE01019692D0F7
S113008086E18A831B8363E0CE0101968BD087E1EE
S11300908A831B8363E0CE01019684D0CD5FCDBFFC
S11300A0DF91CF911F91089512B888E089B982E059
S11300B08BB988E98AB986E083B908951092600003
S11300C0F3DF40D0789480EC8093610082E88093E1
S11300D06200B8DFE3E6F0E083E790E020E52193F7
S11300E0E817F907E1F708EE13E0ACDFE80162E195
S11300F081E690E057D02197D1F7F7CF1F920F9266
S11301000FB60F9211248F939F93EF93FF939CB19B
S11301109F3F19F4109260000CC080916000803100
S113012041F0E82FF0E0EF59FF4F92838F5F809307
S11301306000FF91EF919F918F910F900FBE0F90F0
S11301401F901895C59AC79ABF9ABD9A8FEF8FB919
S11301508AE28DB980EF8EB908958EB98BE297E06B
S11301609A95F1F78DB9B79BFECF93E09A95F1F785
S113017000008DB9769BF3CF87E08A95F1F78FB1B4
S11301809FEF9FB9BD9A0895C598C79AB79BFECFB4
S113019083E08A95F1F70000C59A87E08A95F1F724
S11301A081E008950F931F93CF93DF93162F21E0DF
S11301B020938300FC01208120FD04C021E0226003
S11301C020938300C79AC79BFECFF3E0FA95F1F71B
S11301D00000C59823E02A95F1F70000C798C59A56
S11301E0EC010FEF809183008370F1F0C798888150
S11301F08FB980EFB2DFBD988EEFAFDF80FF0EC006
S11302008091830080FF05C086E08093830080E0B6
S11302101CC085E08093830080E017C08091830038
S11302208E7F809383000BC0BD9880EF96DF888318
S1130230113011F40FB901C01FB88EEF8EDF1150C9
S113024021961111CFCFA0DF81E0DF91CF911F91D3
S10B02500F910895F894FFCF0B
S9030000FC
