:1000000019C028C027C026C025C024C023C022C0D4
:1000100021C020C01FC01EC01DC01CC01BC01AC0F4
:1000200019C018C01EC016C015C014C013C012C01D
:1000300011C010C011241FBECFEFD4E0DEBFCDBF72
:1000400011E0A0E0B1E001C01D92A239B107E1F7D3
:1000500024D2C2C2D5CF01C00000B19BFDCFB19A5E
:1000600008951F920F920FB60F9211242F938F9322
:100070009F93AF93BF93EF93FF932091C60080911E
:1000800004018830F0F480910401882381F4809188
:10009000000190910101A0910201B09103018093B0
:1000A000050190930601A0930701B0930801809188
:1000B0000401E82FF0E0E657FE4F20838F5F809326
:1000C0000401FF91EF91BF91AF919F918F912F917B
:1000D0000F900FBE0F901F90189598E0E1E2F0E1AD
:1000E0009B01220F331F482F552747FD509577FF5F
:1000F0000AC0BA016627770F661F7727622B732B1A
:100100006E277F2707C0BA016627770F661F7727FC
:10011000622B732B915011F0880FE2CFCB01089521
:1001200001C000009091C00095FFFBCF8093C600F6
:10013000089570E028EE33E0629FA001639F500DA8
:10014000729F500D112420E030E00FC06091C0007C
:1001500067FF06C02091C600FC01208381E008955E
:10016000B19BF4CF2F5F3F4FB19A2417350770F33F
:1001700080E008958EBD01C000000DB407FEFCCFE5
:100180008EB50895EF92FF921F93CF93DF935D9A00
:100190002BE52CBD1DBCE82EE7017E01F92EE70101
:1001A00018E08991E7DF1150E1F75D98DF91CF9179
:1001B0001F91FF90EF900895BF92CF92DF92EF9240
:1001C000FF920F931F93CF93DF93D82EC92E7A01FE
:1001D0008B01B22E82E58CBD1DBC403020E0520761
:1001E00022E0620720E0720790F5299886E0C2DFDE
:1001F000299A80E000008F5F8436E1F7299882E039
:10020000B9DF802FB7DF8F2DB5DF8E2DB3DFC601AD
:10021000E92EE7017E01FC2CE70102C08991AADFEB
:100220007E01ED18EB14D0F3299A84E6000081508A
:10023000E9F781E008C0299885E09CDF80E09ADF3B
:10024000299A0000000080FDF6CF81E001C080E027
:10025000DF91CF911F910F91FF90EF90DF90CF90A2
:10026000BF9008958F929F92AF92BF92CF92DF92EC
:10027000EF92FF920F931F93DF93CF9300D0CDB7F0
:10028000DEB7419A8091C6008091C600898320E044
:100290008E010F5F1F4F83E42A8342DFC80161E0B4
:1002A00048DF2A81882321F42F5F2A30A1F72BC051
:1002B000AA24BB24650100E010E020E0FF24EE2426
:1002C000E3944E010894811C911C233059F1243091
:1002D00030F42130D1F089812230E0F408C025309B
:1002E000B9F1253078F1263009F04CC052C0813088
:1002F00009F44AC0843009F04CC086E011DF86E082
:100300000FDF86E00DDF41984EC089818E15F1F533
:1003100022E03FC08E258F3FC9F500E010E023E0CA
:10032000FF2437C08981EF2DF0E0E75FFE4F808327
:10033000F394B8012A83D1DE8C012A818F2D803875
:1003400041F526C08981B801C8DE8C0125E021C0B5
:100350008981B801C2DE8C01009791F4E39489E0B1
:1003600091E0B601A50120E827DF86E0D9DE80E82C
:1003700090E0A0E0B0E0A80EB91ECA1EDB1E02C0CD
:1003800085E1CEDE20E005C021E003C026E001C00B
:1003900024E0C40161E02A83CCDE2A81882309F0AD
:1003A00094CF85E1BDDE0F900F90CF91DF911F912B
:1003B0000F91FF90EF90DF90CF90BF90AF909F9004
:1003C0008F900895CF92DF92EF92FF920F931F9339
:1003D000DF93CF930F92CDB7DEB7D82E7A018B0182
:1003E000C22E5F9A82E58CBD1DBC403020E05207D2
:1003F00022E0620720E07207D8F4299883E099830D
:10040000B9DE802FB7DE8F2DB5DE8E2DB3DE99815C
:100410006D2D792F7B0105C080E0ACDEF701819363
:100420007F018E2D8D198C15B8F3299A81E001C0BA
:1004300080E00F90CF91DF911F910F91FF90EF908F
:10044000DF90CF9008955D9A89EF90E090938900B6
:100450008093880010926F00109280008BE0809350
:1004600081001092C00088E98093C10086E08093EB
:10047000C20083E390E09093C5008093C40080EABB
:100480008AB98AE284B982E087B98FEF85B988B9E1
:100490008BB9299A5F9A41980895BF92CF92DF92C3
:1004A000EF92FF920F931F93DF93CF93CDB7DEB7F9
:1004B00028970FB6F894DEBF0FBECDBF6E0108942B
:1004C000C11CD11C88E0D6011D928A95E9F7BBDFDB
:1004D000789419821A821B821C821D821E821F82BE
:1004E0001886EE24FF248701BB24C601DC2CC92E0C
:1004F000B2DDF8948091000190910101A091020178
:10050000B09103010196A11DB11D8093000190934C
:100510000101A0930201B093030178948D2D9C2DCD
:1005200031DE8091000190910101A0910201B09112
:1005300003018E159F05A007B10740F019821A82AA
:100540001B821C821D821E821F821886F894809155
:1005500004018830F9F4E0900001F090010100916D
:1005600002011091030184E190E0A0E0B0E0E80E08
:10057000F91E0A1F1B1F8D2D9C2DFC0187E090E0AA
:10058000DC01A657BE4F2C9121930197AFEF8F3F0F
:100590009A07B1F7209100013091010140910201C9
:1005A000509103016091050170910601809107014E
:1005B00090910801261B370B480B590B253131054B
:1005C0004105510510F0109204017894BB2DB13013
:0C05D00009F4319AB3948CCFF894FFCF5B
:00000001FF
